:020000020000FC
:0200000056C4E4
:020004009DC499
:10005C000C94B1058F939F939FE08CE90197F1F776
:10006C009F918F910895F6DFF5DFF4DFF3DFF2DF78
:10007C000895F9DFF8DFF7DFF6DFF5DF0895F9DF34
:10008C00F8DFF7DFF6DFF5DF0895F9DFF8DFF7DFEC
:10009C00F6DFF5DF0895F3DFF2DFF1DFF0DF08952F
:1000AC00FADFF9DF0895FCDFFBDF0895F9DFF8DFF5
:1000BC00F7DFF6DFF5DF08958F9380EF80930A0169
:1000CC008F9108950F931F934F936F937F938F93FB
:1000DC009F9300271127442766277727882799277E
:1000EC007FEE55275430A9F370930B01BCDF1091B0
:1000FC0009011F701F3059F061E04427443039F07A
:10010C00212F262341F04395660F0C948400770F22
:10011C0053950C947800533051F0433061F0142F08
:10012C00110F140F150F1F5F105D0C94AC0011E430
:10013C00140F0C94AC00503029F0513031F013E214
:10014C000C94AC001AE20C94AC0010E3512F97DF26
:10015C009F918F917F916F914F911F910F91089566
:10016C000FEF00BB01B9002701BB02B90F9308E3E5
:10017C0056D06FD00F9177DF0F9308E350D069D032
:10018C000F9168DF0F9308E34AD063D00F910F9360
:10019C0008E345D05ED00F910F9308E040D059D0C2
:1001AC000F910F9301E03BD054D00F910F9306E0C9
:1001BC0036D04FD00F910F930EE031D04AD00F9123
:1001CC000F9302E537D045D00F910F9305E432D051
:1001DC0040D00F910F9303E52DD03BD00F910F938F
:1001EC0004E528D036D00F910F9301E423D031D001
:1001FC000F910F9302E51ED02CD00F910F9304E5B5
:10020C0019D027D00F9147DF0F9301E008D021D0F0
:10021C000F910F9302E003D01CD00F91089501BBF6
:10022C000000169A00000000000016980000000064
:10023C000000089501BB179A000000000000169AF8
:10024C000000000000001698000000000000179845
:10025C0008950F93002700BB159A0000169A000012
:10026C00000000000FB1169807FDF7CF15980FEF9F
:10027C0000BB0F9108950F932F9304E607D00AE06B
:10028C0005D001E003D02F910F91089520E01017B5
:10029C001AF0101B2395FBCF205D0F93022FCADFA2
:1002AC00D8DF0F910895CF93DF93EF93FF930F93C4
:1002BC001F932F933F938F939F93C4E1D2E0E6E17A
:1002CC00FCE0C193D083E4E1FCE02A96C193D08397
:1002DC00E8E1FCE0C193D083CF93DF930F938F932E
:1002EC009F93CBE1DCE0002708839F918F910F91C6
:1002FC00DF91CF91CF93DF930F938F939F93CAE1AD
:10030C00DCE0002708839F918F910F91DF91CF91B3
:10031C00CF93DF930F938F939F93CAE1DCE0088117
:10032C00039508839F918F910F91DF91CF919F91AE
:10033C008F913F912F911F910F91FF91EF91DF9131
:10034C00CF910895CF93DF93EF93FF930F931F9368
:10035C002F933F938F939F930AE0C8E1DCE02991A0
:10036C003881C22FD32FEAE0F2E0003011F1119165
:10037C0019930A95CF93DF930F938F939F93C6E1B5
:10038C00DCE00881039508839F918F910F91DF9199
:10039C00CF91CF93DF930F938F939F93C8E1DCE0C2
:1003AC000881039508839F918F910F91DF91CF91D5
:1003BC00DCCFCF93DF930F938F939F93CBE1DCE054
:1003CC000881039508839F918F910F91DF91CF91B5
:1003DC009F918F913F912F911F910F91FF91EF91D1
:1003EC00DF91CF910895CF93DF93EF93FF930F930A
:1003FC001F932F933F938F939F930AE0003089F0C4
:10040C000A95CF93DF930F938F939F93C4E1DCE016
:10041C000881039508839F918F910F91DF91CF9164
:10042C00EDCFCF93DF930F938F939F93CAE1DCE0D3
:10043C000881039508839F918F910F91DF91CF9144
:10044C009F918F913F912F911F910F91FF91EF9160
:10045C00DF91CF9108950F931F932F933F934F9359
:10046C005F936F937F938F939F93EF93FF930F9370
:10047C0001E0D5DEEEDE0F910F9302E0D0DEE9DE77
:10048C000F91EF93FF930F93E0E6F8E005910030A6
:10049C0031F00F93002FCEDEDCDE0F91F7CF0F91F2
:1004AC00FF91EF910F9300ECBADED3DE0F91B8D130
:1004BC00E4E1FCE001911081E02FF12F1AE00191B1
:1004CC000F93002FB7DEC5DE0F911A95C1F713E01D
:1004DC00103041F000E20F93002FACDEBADE0F912A
:1004EC001A95F6CF000010911A0CC5DEFF91EF9112
:1004FC009F918F917F916F915F914F913F912F9130
:10050C001F910F9108950F931F932F933F934F9328
:10051C005F936F937F938F939F93EF93FF930F93BF
:10052C0001E07DDE96DE0F910F9302E078DE91DE26
:10053C000F91EF93FF930F93E0E5F8E005910030F6
:10054C0031F00F93002F76DE84DE0F91F7CF0F91F1
:10055C00FF91EF910F9300EC62DE7BDE0F91E6E1F1
:10056C00FCE001911081E02FF12F1AE001910F9323
:10057C00002F60DE6EDE0F911A95C1F713E010307C
:10058C0041F000E20F93002F55DE63DE0F911A95B8
:10059C00F6CF000010911B0C6EDEFF91EF919F9136
:1005AC008F917F916F915F914F913F912F911F91FF
:1005BC000F9108950F931F932F933F934F935F9336
:1005CC006F937F938F939F93AF93BF93EF93FF930F
:1005DC00CF93DF93CF93DF930F938F939F93C1E2CE
:1005EC00DCE00881039508839F918F910F91DF9137
:1005FC00CF910AD10F9301E012DE2BDE0F910F93F6
:10060C0002E00DDE26DE0F91EF93FF930F93E4E4EF
:10061C00F8E00591003031F00F93002F0BDE19DE5E
:10062C000F91F7CF0F91FF91EF910F9300ECF7DD46
:10063C0010DE0F91662777278827C0E0D2E01AE0FA
:10064C0020E229931A95E1F7CAE0D2E01AE020E201
:10065C0029931A95E1F7112735DD523368F15A3396
:10066C0058F5571719F0752F882708C000EC060F9E
:10067C000F93002FD4DDEDDD0F918395252F2253A1
:10068C00220FEEE6F8E01124E20FF11D15912491F2
:10069C00E12FF22FEE0FFF1F3491831708F08827FC
:1006AC00482F31963196E40FF11D94910F93092F39
:1006BC00C1DDCFDD0F91D0CF533219F1543451F14C
:1006CC00533419F0523419F0C7CF0C9400036A95C7
:1006DC00C0E0D2E0C60F00E2088300EC060F0F93D7
:1006EC00002F9DDDB6DD0F910F9300E2A3DDB1DD90
:1006FC000F9100EC060F0F93002F91DDAADD0F91E7
:10070C00ABCFC0E0D2E0C60FD11D9883639577279D
:10071C008827A2CFCF93DF930F938F939F93C1E240
:10072C00DCE0002708839F918F910F91DF91CF918F
:10073C00CF93DF930F938F939F93C2E2DCE00881FA
:10074C00039508839F918F910F91DF91CF91E0E0FA
:10075C00F2E0CAE0D2E0162F219129931A95E1F725
:10076C000F9301E05CDD75DD0F910F9302E057DD17
:10077C0070DD0F91EF93FF930F93E0E5F8E0059197
:10078C00003031F00F93002F55DD63DD0F91F7CF63
:10079C000F91FF91EF910F9300EC41DD5ADD0F911A
:1007AC00D1DDB1DE8FDC5434E9F7CF93DF930F93B7
:1007BC008F939F93C2E2DCE0002708839F918F9177
:1007CC000F91DF91CF91DF91CF91FF91EF91BF917D
:1007DC00AF919F918F917F916F915F914F913F91CD
:1007EC002F911F910F9108950F930FEF08B904BB30
:1007FC00009302010F9108950F93002708B904BBD1
:10080C00009302010F9108950F931F93002701B9D4
:10081C0010B11D7F0FEF01B912B91F910F910895FF
:10082C000F931F93002701B910B112600FEF01B99C
:10083C0012B91F910F910895456E746572204E6127
:10084C006D653A00596F7572204E756D6265722038
:10085C0049733A004E6578742050617469656E7402
:10086C003A003F044204450448044B044E0451042E
:10087C005404030041424300030044454600030076
:10088C004748490003004A4B4C0003004D4E4F00B3
:10089C00040050515253030054555600040057584D
:1008AC00595ACF93DF930F938F939F93CCE1DCE056
:1008BC000027099308839F918F910F91DF91CF911E
:1008CC00CF93DF930F938F939F93CEE1DCE00027C0
:1008DC00099308839F918F910F91DF91CF91CF93C3
:1008EC00DF930F938F939F93C1E2DCE00027088383
:1008FC009F918F910F91DF91CF91CF93DF930F93B6
:10090C008F939F93C2E2DCE0002708839F918F9125
:10091C000F91DF91CF91A6D1CFDB22DCC4DC0FEF9E
:10092C0007B903BB002708B904BB00270AB90FEFAE
:10093C000BB992C1A4DB0F930FB70F931F93CF93F7
:10094C00DF930F938F939F930DB30E7F0DBB789412
:10095C00CAE1DCE00881CBE1DCE0188110170AF079
:10096C0001C06CC08CDB77DDCF93DF930F938F933B
:10097C009F93C0E2DCE0002708839F918F910F9139
:10098C00DF91CF9134C02FDD66DD8ADB52C034DFBE
:10099C002ADD61DD85DBCF93DF930F938F939F93DC
:1009AC00CEE1DCE00027099308839F918F910F9192
:1009BC00DF91CF9143C074DB0FEF499B00270030D0
:1009CC0011F317C06DDB0FEF499B00270030D9F2F4
:1009DC0025C066DB0FEF489B00270030C1F20BC02F
:1009EC005FDB0FEF489B0027003089F219C0499B51
:1009FC00E2CF489BEECFC0E2DCE08881843161F02D
:100A0C00082F037029F0082F0E5F037019F0EFCF39
:100A1C00F3DEEDCFE9DEEBCF499BD4CF489BE0CFA3
:100A2C00C0E2DCE0888180FD02C0E6DEF5CFDCDED2
:100A3C00F3CFDADEF89437DB789494CF0F931F93CF
:100A4C002F933F934F935F936F937F938F939F93CA
:100A5C00AF93BF93EF93FF93CF93DF93C1E2DCE0AF
:100A6C008881813031F0C2E2DCE08881813079F11B
:100A7C0052C01CDBC9DE0F9301E0D1DBEADB0F9126
:100A8C000F9302E0CCDBE5DB0F91EF93FF930F9319
:100A9C00E4E4F8E00591003031F00F93002FCADB4D
:100AAC00D8DB0F91F7CF0F91FF91EF910F9300ECE3
:100ABC00B6DBCFDB0F91C0E0D2E00991003231F010
:100ACC000F93002FB7DBC5DB0F91F7CF24C0EEDA05
:100ADC009BDE0F9301E0A3DBBCDB0F910F9302E0D5
:100AEC009EDBB7DB0F91EF93FF930F93E0E5F8E0FC
:100AFC000591003031F00F93002F9CDBAADB0F9196
:100B0C00F7CF0F91FF91EF910F9300EC88DBA1DBF6
:100B1C000F91F9DC00C0DF91CF91FF91EF91BF9164
:100B2C00AF919F918F917F916F915F914F913F9179
:100B3C002F911F910F910CB301600CBB0DB3016091
:100B4C000DBB9F918F910F91DF91CF911F910F91C1
:100B5C000FBF0F9118950F930FB70F93CF93DF9390
:100B6C000F938F939F93CCE1DCE089919881019650
:100B7C0098838A939F918F910F91DF91CF91CF930F
:100B8C00DF930F938F939F93CCE1DCE08991988155
:100B9C00843F89F4913079F4CF93DF930F938F9343
:100BAC009F93C0E2DCE00881039508839F918F91AD
:100BBC000F91DF91CF91883E91F4933081F418D04E
:100BCC00CF93DF930F938F939F93CCE1DCE00027BF
:100BDC00099308839F918F910F91DF91CF919F91F2
:100BEC008F910F91DF91CF910F910FBF0F911895AE
:100BFC00CF93DF930F938F939F932F931F930F920A
:100C0C001F923FD0CF93DF930F938F939F93CEE19F
:100C1C00DCE089919881019698838A939F918F91BA
:100C2C000F91DF91CF91CF93DF930F938F939F937E
:100C3C00C0E2DCE00881039508839F918F910F91AE
:100C4C00DF91CF911F900F901F912F919F918F91BA
:100C5C000F91DF91CF910895FEDB34DA5134E1F737
:100C6C00A9DCFACF00E004BD03E005BD01E0009370
:100C7C006E0002E0009369000DB301600DBB789427
:100C8C000895CEE1DCE088818431C0F404E1081BD6
:100C9C000F5F1AE0019F002D1127043118F0045149
:100CAC001395FBCF012F112722270A9522F0110F44
:100CBC00221F1160FACF18B924BB01C09DDD089525
:00000001FF
